{
  "_format": "hh-sol-artifact-1",
  "contractName": "Voting",
  "sourceName": "contracts/Voting.sol",
  "abi": [
    {
      "inputs": [],
      "stateMutability": "nonpayable",
      "type": "constructor"
    },
    {
      "anonymous": false,
      "inputs": [
        {
          "indexed": true,
          "internalType": "uint256",
          "name": "electionId",
          "type": "uint256"
        },
        {
          "indexed": false,
          "internalType": "uint256",
          "name": "candidateId",
          "type": "uint256"
        },
        {
          "indexed": false,
          "internalType": "string",
          "name": "name",
          "type": "string"
        }
      ],
      "name": "CandidateAdded",
      "type": "event"
    },
    {
      "anonymous": false,
      "inputs": [
        {
          "indexed": true,
          "internalType": "uint256",
          "name": "electionId",
          "type": "uint256"
        },
        {
          "indexed": false,
          "internalType": "uint256",
          "name": "startTime",
          "type": "uint256"
        },
        {
          "indexed": false,
          "internalType": "uint256",
          "name": "endTime",
          "type": "uint256"
        }
      ],
      "name": "ElectionConfigured",
      "type": "event"
    },
    {
      "anonymous": false,
      "inputs": [
        {
          "indexed": true,
          "internalType": "uint256",
          "name": "electionId",
          "type": "uint256"
        },
        {
          "indexed": false,
          "internalType": "string",
          "name": "name",
          "type": "string"
        }
      ],
      "name": "ElectionCreated",
      "type": "event"
    },
    {
      "anonymous": false,
      "inputs": [
        {
          "indexed": true,
          "internalType": "uint256",
          "name": "electionId",
          "type": "uint256"
        },
        {
          "indexed": true,
          "internalType": "address",
          "name": "voter",
          "type": "address"
        },
        {
          "indexed": false,
          "internalType": "uint256",
          "name": "candidateId",
          "type": "uint256"
        },
        {
          "indexed": false,
          "internalType": "uint256",
          "name": "timestamp",
          "type": "uint256"
        }
      ],
      "name": "VoteCasted",
      "type": "event"
    },
    {
      "anonymous": false,
      "inputs": [
        {
          "indexed": true,
          "internalType": "uint256",
          "name": "electionId",
          "type": "uint256"
        },
        {
          "indexed": true,
          "internalType": "address",
          "name": "voter",
          "type": "address"
        }
      ],
      "name": "VoterAuthorized",
      "type": "event"
    },
    {
      "anonymous": false,
      "inputs": [
        {
          "indexed": true,
          "internalType": "uint256",
          "name": "electionId",
          "type": "uint256"
        },
        {
          "indexed": true,
          "internalType": "address",
          "name": "voter",
          "type": "address"
        }
      ],
      "name": "VoterRevoked",
      "type": "event"
    },
    {
      "inputs": [
        {
          "internalType": "uint256",
          "name": "_electionId",
          "type": "uint256"
        },
        {
          "internalType": "string",
          "name": "_name",
          "type": "string"
        }
      ],
      "name": "addCandidate",
      "outputs": [],
      "stateMutability": "nonpayable",
      "type": "function"
    },
    {
      "inputs": [],
      "name": "admin",
      "outputs": [
        {
          "internalType": "address",
          "name": "",
          "type": "address"
        }
      ],
      "stateMutability": "view",
      "type": "function"
    },
    {
      "inputs": [
        {
          "internalType": "uint256",
          "name": "_electionId",
          "type": "uint256"
        },
        {
          "internalType": "address",
          "name": "_voter",
          "type": "address"
        }
      ],
      "name": "authorizeVoter",
      "outputs": [],
      "stateMutability": "nonpayable",
      "type": "function"
    },
    {
      "inputs": [
        {
          "internalType": "uint256",
          "name": "_electionId",
          "type": "uint256"
        },
        {
          "internalType": "address[]",
          "name": "_votersToAuthorize",
          "type": "address[]"
        }
      ],
      "name": "authorizeVoters",
      "outputs": [],
      "stateMutability": "nonpayable",
      "type": "function"
    },
    {
      "inputs": [
        {
          "internalType": "string",
          "name": "_name",
          "type": "string"
        }
      ],
      "name": "createElection",
      "outputs": [],
      "stateMutability": "nonpayable",
      "type": "function"
    },
    {
      "inputs": [
        {
          "internalType": "uint256",
          "name": "",
          "type": "uint256"
        },
        {
          "internalType": "uint256",
          "name": "",
          "type": "uint256"
        }
      ],
      "name": "electionCandidates",
      "outputs": [
        {
          "internalType": "uint256",
          "name": "id",
          "type": "uint256"
        },
        {
          "internalType": "string",
          "name": "name",
          "type": "string"
        },
        {
          "internalType": "uint256",
          "name": "voteCount",
          "type": "uint256"
        }
      ],
      "stateMutability": "view",
      "type": "function"
    },
    {
      "inputs": [],
      "name": "electionCount",
      "outputs": [
        {
          "internalType": "uint256",
          "name": "",
          "type": "uint256"
        }
      ],
      "stateMutability": "view",
      "type": "function"
    },
    {
      "inputs": [
        {
          "internalType": "uint256",
          "name": "",
          "type": "uint256"
        },
        {
          "internalType": "address",
          "name": "",
          "type": "address"
        }
      ],
      "name": "electionVoters",
      "outputs": [
        {
          "internalType": "bool",
          "name": "isRegistered",
          "type": "bool"
        },
        {
          "internalType": "bool",
          "name": "hasVoted",
          "type": "bool"
        },
        {
          "internalType": "uint256",
          "name": "votedCandidateId",
          "type": "uint256"
        }
      ],
      "stateMutability": "view",
      "type": "function"
    },
    {
      "inputs": [
        {
          "internalType": "uint256",
          "name": "",
          "type": "uint256"
        }
      ],
      "name": "elections",
      "outputs": [
        {
          "internalType": "uint256",
          "name": "id",
          "type": "uint256"
        },
        {
          "internalType": "string",
          "name": "name",
          "type": "string"
        },
        {
          "internalType": "uint256",
          "name": "startTime",
          "type": "uint256"
        },
        {
          "internalType": "uint256",
          "name": "endTime",
          "type": "uint256"
        },
        {
          "internalType": "bool",
          "name": "isConfigured",
          "type": "bool"
        },
        {
          "internalType": "uint256",
          "name": "candidatesCount",
          "type": "uint256"
        },
        {
          "internalType": "uint256",
          "name": "totalVotes",
          "type": "uint256"
        }
      ],
      "stateMutability": "view",
      "type": "function"
    },
    {
      "inputs": [
        {
          "internalType": "uint256",
          "name": "_electionId",
          "type": "uint256"
        }
      ],
      "name": "endElection",
      "outputs": [],
      "stateMutability": "nonpayable",
      "type": "function"
    },
    {
      "inputs": [
        {
          "internalType": "uint256",
          "name": "_electionId",
          "type": "uint256"
        }
      ],
      "name": "getCandidates",
      "outputs": [
        {
          "components": [
            {
              "internalType": "uint256",
              "name": "id",
              "type": "uint256"
            },
            {
              "internalType": "string",
              "name": "name",
              "type": "string"
            },
            {
              "internalType": "uint256",
              "name": "voteCount",
              "type": "uint256"
            }
          ],
          "internalType": "struct Voting.Candidate[]",
          "name": "",
          "type": "tuple[]"
        }
      ],
      "stateMutability": "view",
      "type": "function"
    },
    {
      "inputs": [
        {
          "internalType": "uint256",
          "name": "_electionId",
          "type": "uint256"
        }
      ],
      "name": "getElectionStatus",
      "outputs": [
        {
          "internalType": "bool",
          "name": "isActive",
          "type": "bool"
        },
        {
          "internalType": "bool",
          "name": "hasEnded",
          "type": "bool"
        },
        {
          "internalType": "uint256",
          "name": "start",
          "type": "uint256"
        },
        {
          "internalType": "uint256",
          "name": "end",
          "type": "uint256"
        }
      ],
      "stateMutability": "view",
      "type": "function"
    },
    {
      "inputs": [
        {
          "internalType": "uint256",
          "name": "_electionId",
          "type": "uint256"
        },
        {
          "internalType": "address",
          "name": "_voter",
          "type": "address"
        }
      ],
      "name": "revokeVoter",
      "outputs": [],
      "stateMutability": "nonpayable",
      "type": "function"
    },
    {
      "inputs": [
        {
          "internalType": "uint256",
          "name": "_electionId",
          "type": "uint256"
        },
        {
          "internalType": "address[]",
          "name": "_votersToRevoke",
          "type": "address[]"
        }
      ],
      "name": "revokeVoters",
      "outputs": [],
      "stateMutability": "nonpayable",
      "type": "function"
    },
    {
      "inputs": [
        {
          "internalType": "uint256",
          "name": "_electionId",
          "type": "uint256"
        },
        {
          "internalType": "uint256",
          "name": "_durationInMinutes",
          "type": "uint256"
        }
      ],
      "name": "startElection",
      "outputs": [],
      "stateMutability": "nonpayable",
      "type": "function"
    },
    {
      "inputs": [
        {
          "internalType": "uint256",
          "name": "_electionId",
          "type": "uint256"
        },
        {
          "internalType": "uint256",
          "name": "_candidateId",
          "type": "uint256"
        }
      ],
      "name": "vote",
      "outputs": [],
      "stateMutability": "nonpayable",
      "type": "function"
    }
  ],
  "bytecode": "0x6080604052348015600f57600080fd5b506001600081905580546001600160a01b0319163317905561191c806100366000396000f3fe608060405234801561001057600080fd5b50600436106101005760003560e01c806375aac3fa11610097578063a42c56f711610066578063a42c56f714610236578063b384abef14610258578063f5728fbe1461026b578063f851a440146102c757600080fd5b806375aac3fa146101e6578063874a72c1146101f9578063997d28301461020c5780639c98bcbb1461022357600080fd5b806324785b9e116100d357806324785b9e146101535780633e39a7a51461018d5780635e6fef01146101ad57806371a842c9146101d357600080fd5b80630c54b463146101055780630d375f031461011a57806315cf4a5f1461012d5780631750a3d014610140575b600080fd5b610118610113366004611302565b6102f2565b005b610118610128366004611324565b610448565b61011861013b36600461144a565b610557565b61011861014e366004611487565b6105f7565b6101666101613660046114ce565b61077a565b60408051941515855292151560208501529183015260608201526080015b60405180910390f35b6101a061019b3660046114ce565b610819565b604051610184919061152d565b6101c06101bb3660046114ce565b6109e6565b60405161018497969594939291906115b4565b6101186101e1366004611324565b610aad565b6101186101f4366004611613565b610bc6565b610118610207366004611613565b610d24565b61021560025481565b604051908152602001610184565b6101186102313660046114ce565b610e38565b610249610244366004611302565b610f0b565b6040516101849392919061163f565b610118610266366004611302565b610fc1565b6102aa610279366004611613565b60056020908152600092835260408084209091529082529020805460019091015460ff808316926101009004169083565b604080519315158452911515602084015290820152606001610184565b6001546102da906001600160a01b031681565b6040516001600160a01b039091168152602001610184565b6001546001600160a01b031633146103255760405162461bcd60e51b815260040161031c90611668565b60405180910390fd5b8160008111801561033857506002548111155b6103545760405162461bcd60e51b815260040161031c9061169f565b6000838152600360205260409020600481015460ff16156103c35760405162461bcd60e51b8152602060048201526024808201527f456c656374696f6e2068617320616c7265616479206265656e20636f6e6669676044820152631d5c995960e21b606482015260840161031c565b4260028201556103d483603c6116ec565b81600201546103e39190611709565b6003820181905560048201805460ff19166001179055600282015460405186927f8ef79dba3c82e8c1e27029879be1abfc2387bdab779e0c0d02c17aee8d70d7ac9261043a92909190918252602082015260400190565b60405180910390a250505050565b6001546001600160a01b031633146104725760405162461bcd60e51b815260040161031c90611668565b8260008111801561048557506002548111155b6104a15760405162461bcd60e51b815260040161031c9061169f565b60005b828110156105505760008484838181106104c0576104c061171c565b90506020020160208101906104d59190611732565b60008781526005602090815260408083206001600160a01b0385168452909152902080549192509060ff1661054657805460ff191660011781556040516001600160a01b0383169088907f3472268c878450e0a658ae0f35954d9f22e16ae6e92cf9322237f8e6a50d982190600090a35b50506001016104a4565b5050505050565b6001546001600160a01b031633146105815760405162461bcd60e51b815260040161031c90611668565b6002805490600061059183611754565b90915550506002546000818152600360205260409020908155600181016105b883826117e8565b506002547f52be7c4e77b4de76b7607d621492061fe13b58597e72dfb5e51ab8f6187ed141836040516105eb91906118a7565b60405180910390a25050565b6001546001600160a01b031633146106215760405162461bcd60e51b815260040161031c90611668565b8160008111801561063457506002548111155b6106505760405162461bcd60e51b815260040161031c9061169f565b6000838152600360205260409020600481015460ff16156106c75760405162461bcd60e51b815260206004820152602b60248201527f43616e6e6f74206164642063616e6469646174657320616674657220656c656360448201526a74696f6e2073746172747360a81b606482015260840161031c565b6005810180549060006106d983611754565b90915550506005810154604080516060810182528281526020808201878152600083850181905289815260048352848120868252909252929020815181559151909190600182019061072b90826117e8565b5060408201518160020155905050847fed8911b3df733b7d5f75724158e54478ea12e30f49c9d31b5261879f5b76586f828660405161076b9291906118ba565b60405180910390a25050505050565b6000806000808460008111801561079357506002548111155b6107af5760405162461bcd60e51b815260040161031c9061169f565b6000868152600360205260409020600481015460ff166107dd57600080600080955095509550955050610811565b6000816002015442101580156107f65750816003015442105b60038301546002909301549097504283111596509450909250505b509193509193565b60608160008111801561082e57506002548111155b61084a5760405162461bcd60e51b815260040161031c9061169f565b600083815260036020526040812060050154908167ffffffffffffffff811115610876576108766113a5565b6040519080825280602002602001820160405280156108cb57816020015b6108b860405180606001604052806000815260200160608152602001600081525090565b8152602001906001900390816108945790505b50905060015b8281116109db5760008681526004602090815260408083208484528252918290208251606081019093528054835260018101805491928401916109139061176d565b80601f016020809104026020016040519081016040528092919081815260200182805461093f9061176d565b801561098c5780601f106109615761010080835404028352916020019161098c565b820191906000526020600020905b81548152906001019060200180831161096f57829003601f168201915b50505050508152602001600282015481525050826001836109ad91906118d3565b815181106109bd576109bd61171c565b602002602001018190525080806109d390611754565b9150506108d1565b509250505b50919050565b60036020526000908152604090208054600182018054919291610a089061176d565b80601f0160208091040260200160405190810160405280929190818152602001828054610a349061176d565b8015610a815780601f10610a5657610100808354040283529160200191610a81565b820191906000526020600020905b815481529060010190602001808311610a6457829003601f168201915b50505060028401546003850154600486015460058701546006909701549596929591945060ff16925087565b6001546001600160a01b03163314610ad75760405162461bcd60e51b815260040161031c90611668565b82600081118015610aea57506002548111155b610b065760405162461bcd60e51b815260040161031c9061169f565b60005b82811015610550576000848483818110610b2557610b2561171c565b9050602002016020810190610b3a9190611732565b60008781526005602090815260408083206001600160a01b0385168452909152902080549192509060ff168015610b7857508054610100900460ff16155b15610bbc57805460ff191681556040516001600160a01b0383169088907fce3407d3c019a8bbe4dde80cc0610b2701e69b0c24fd0298768f3a817e8761b390600090a35b5050600101610b09565b6001546001600160a01b03163314610bf05760405162461bcd60e51b815260040161031c90611668565b81600081118015610c0357506002548111155b610c1f5760405162461bcd60e51b815260040161031c9061169f565b60008381526005602090815260408083206001600160a01b03861684529091529020805460ff16610c895760405162461bcd60e51b8152602060048201526014602482015273159bdd195c881b9bdd08185d5d1a1bdc9a5e995960621b604482015260640161031c565b8054610100900460ff1615610ce05760405162461bcd60e51b815260206004820152601760248201527f566f7465722068617320616c726561647920766f746564000000000000000000604482015260640161031c565b805460ff191681556040516001600160a01b0384169085907fce3407d3c019a8bbe4dde80cc0610b2701e69b0c24fd0298768f3a817e8761b390600090a350505050565b6001546001600160a01b03163314610d4e5760405162461bcd60e51b815260040161031c90611668565b81600081118015610d6157506002548111155b610d7d5760405162461bcd60e51b815260040161031c9061169f565b60008381526005602090815260408083206001600160a01b03861684529091529020805460ff1615610df15760405162461bcd60e51b815260206004820152601860248201527f566f74657220616c726561647920617574686f72697a65640000000000000000604482015260640161031c565b805460ff191660011781556040516001600160a01b0384169085907f3472268c878450e0a658ae0f35954d9f22e16ae6e92cf9322237f8e6a50d982190600090a350505050565b6001546001600160a01b03163314610e625760405162461bcd60e51b815260040161031c90611668565b80600081118015610e7557506002548111155b610e915760405162461bcd60e51b815260040161031c9061169f565b6000828152600360205260409020600481015460ff16610ef35760405162461bcd60e51b815260206004820152601b60248201527f456c656374696f6e206e6f742079657420636f6e666967757265640000000000604482015260640161031c565b8060030154421015610f06574260038201555b505050565b600460209081526000928352604080842090915290825290208054600182018054919291610f389061176d565b80601f0160208091040260200160405190810160405280929190818152602001828054610f649061176d565b8015610fb15780601f10610f8657610100808354040283529160200191610fb1565b820191906000526020600020905b815481529060010190602001808311610f9457829003601f168201915b5050505050908060020154905083565b6002600054036110135760405162461bcd60e51b815260206004820152601f60248201527f5265656e7472616e637947756172643a207265656e7472616e742063616c6c00604482015260640161031c565b600260005581801580159061102a57506002548111155b6110465760405162461bcd60e51b815260040161031c9061169f565b6000838152600360205260409020600481015484919060ff166110ab5760405162461bcd60e51b815260206004820152601760248201527f456c656374696f6e206e6f7420636f6e66696775726564000000000000000000604482015260640161031c565b80600201544210156110ff5760405162461bcd60e51b815260206004820152601c60248201527f456c656374696f6e20686173206e6f7420737461727465642079657400000000604482015260640161031c565b806003015442106111475760405162461bcd60e51b8152602060048201526012602482015271115b1958dd1a5bdb881a185cc8195b99195960721b604482015260640161031c565b600085815260036020908152604080832060058352818420338552909252909120805460ff166111b95760405162461bcd60e51b815260206004820152601f60248201527f596f7520617265206e6f7420616e20617574686f72697a656420766f74657200604482015260640161031c565b8054610100900460ff16156112095760405162461bcd60e51b8152602060048201526016602482015275165bdd481a185d9948185b1c9958591e481d9bdd195960521b604482015260640161031c565b60008611801561121d575081600501548611155b6112605760405162461bcd60e51b8152602060048201526014602482015273125b9d985b1a590818d85b991a59185d1948125160621b604482015260640161031c565b805461ff001916610100178155600181018690556000878152600460209081526040808320898452909152812060020180549161129c83611754565b90915550506006820180549060006112b383611754565b909155505060408051878152426020820152339189917f84ba9619ac0b4c3c1915f3cc260b3c317ed6569bc096b0cfc2d7a4e15bb64232910160405180910390a3505060016000555050505050565b6000806040838503121561131557600080fd5b50508035926020909101359150565b60008060006040848603121561133957600080fd5b83359250602084013567ffffffffffffffff81111561135757600080fd5b8401601f8101861361136857600080fd5b803567ffffffffffffffff81111561137f57600080fd5b8660208260051b840101111561139457600080fd5b939660209190910195509293505050565b634e487b7160e01b600052604160045260246000fd5b600082601f8301126113cc57600080fd5b813567ffffffffffffffff8111156113e6576113e66113a5565b604051601f8201601f19908116603f0116810167ffffffffffffffff81118282101715611415576114156113a5565b60405281815283820160200185101561142d57600080fd5b816020850160208301376000918101602001919091529392505050565b60006020828403121561145c57600080fd5b813567ffffffffffffffff81111561147357600080fd5b61147f848285016113bb565b949350505050565b6000806040838503121561149a57600080fd5b82359150602083013567ffffffffffffffff8111156114b857600080fd5b6114c4858286016113bb565b9150509250929050565b6000602082840312156114e057600080fd5b5035919050565b6000815180845260005b8181101561150d576020818501810151868301820152016114f1565b506000602082860101526020601f19601f83011685010191505092915050565b6000602082016020835280845180835260408501915060408160051b86010192506020860160005b828110156115a857603f1987860301845281518051865260208101516060602088015261158560608801826114e7565b604092830151979092019690965294506020938401939190910190600101611555565b50929695505050505050565b87815260e0602082015260006115cd60e08301896114e7565b6040830197909752506060810194909452911515608084015260a083015260c09091015292915050565b80356001600160a01b038116811461160e57600080fd5b919050565b6000806040838503121561162657600080fd5b82359150611636602084016115f7565b90509250929050565b83815260606020820152600061165860608301856114e7565b9050826040830152949350505050565b60208082526018908201527f4f6e6c792061646d696e2063616e2063616c6c20746869730000000000000000604082015260600190565b60208082526017908201527f456c656374696f6e20646f6573206e6f74206578697374000000000000000000604082015260600190565b634e487b7160e01b600052601160045260246000fd5b8082028115828204841417611703576117036116d6565b92915050565b80820180821115611703576117036116d6565b634e487b7160e01b600052603260045260246000fd5b60006020828403121561174457600080fd5b61174d826115f7565b9392505050565b600060018201611766576117666116d6565b5060010190565b600181811c9082168061178157607f821691505b6020821081036109e057634e487b7160e01b600052602260045260246000fd5b601f821115610f0657806000526020600020601f840160051c810160208510156117c85750805b601f840160051c820191505b8181101561055057600081556001016117d4565b815167ffffffffffffffff811115611802576118026113a5565b61181681611810845461176d565b846117a1565b6020601f82116001811461184a57600083156118325750848201515b600019600385901b1c1916600184901b178455610550565b600084815260208120601f198516915b8281101561187a578785015182556020948501946001909201910161185a565b50848210156118985786840151600019600387901b60f8161c191681555b50505050600190811b01905550565b60208152600061174d60208301846114e7565b82815260406020820152600061147f60408301846114e7565b81810381811115611703576117036116d656fea264697066735822122034565d4ff342e949b4d1482f7abc578a411466759aa3eed98a905632c5c7e33764736f6c634300081c0033",
  "linkReferences": {},
  "deployedLinkReferences": {}
}